:020000040020DA
:10000000084B00208D0220004BD8200049D820004A
:1000100049D8200049D8200049D82000000000001D
:1000200000000000000000000000000049D820008F
:1000300049D820000000000049D8200069E02000D5
:100040008BE0200091E0200097E020009DE0200060
:10005000000000006FE0200075E0200049D820007B
:1000600049D820000000000000000000000000004F
:10007000000000000000000049D82000000000003F
:10008000000000000000000049D8200049D82000EE
:1000900049D8200049D8200049D8200049D820005C
:1000A00049D8200049D8200049D8200049D820004C
:1000B00049D8200049D8200049D8200049D820003C
:1000C00049D8200049D8200049D8200049D820002C
:1000D00049D82000000000000000000000000000DF
:1000E0000000000000000000000000000000000010
:1000F00000000000000000002945200039452000D4
:1001000000000000000000000000000000000000EF
:1001100000000000000000000000000000000000DF
:1001200000000000000000000000000000000000CF
:1001300000000000000000000000000000000000BF
:1001400000000000000000000000000000000000AF
:10015000000000000000000000000000000000009F
:10016000000000000000000000000000000000008F
:10017000000000000000000000000000000000007F
:10018000000000000000000000000000000000006F
:10019000000000000000000000000000000000005F
:1001A000000000000000000000000000000000004F
:1001B000000000000000000000000000000000003F
:1001C000000000000000000000000000000000002F
:1001D000000000000000000000000000000000001F
:1001E000000000000000000000000000000000000F
:1001F00000000000000000000000000000000000FF
:1002000000000000000000000000000000000000EE
:1002100000000000000000000000000000000000DE
:1002200000000000000000000000000000000000CE
:1002300000000000000000000000000000000000BE
:1002400000000000000000000000000000000000AE
:10025000000000000000000000000000000000009E
:10026000000000000000000000000000000000008E
:1002700049D820001D44200035442000F93C2000CE
:10028000994620001D38200049D8200008B5094BA8
:10029000FF221A600848094A4824E3690849121AEB
:1002A00098470848084AA3690021121A984702F0A3
:1002B00073FFFEE7B4200D4040000020320A00200A
:1002C00058062100380A00200643002008B50DF02A
:1002D00081FD034B186005F061F9024B188008BDE1
:1002E000940B002020260020024B1888013080B299
:1002F0001880704720260020F7B5044601232160AE
:10030000037100230B700E46016800790A7842EAF7
:1003100080120A70206862790178120102F03002BE
:100320000A430270A27A206802F00F0102780A43A1
:1003300002702268A179517022892168120A8A709C
:1003400022682189D170A279002A00F040812246DA
:1003500052F80A5B0435A17A8B4205D212F8011FCC
:10036000013305F8011BF6E7E37C03F0020303F019
:10037000FF015BB194F86A30002100932A46012006
:1003800004F16B030DF028FB01210544E37C1A07FF
:1003900008D5236C2A4600930320636C0DF01CFBE8
:1003A00003210544E37CDB060AD594F824302A4671
:1003B0000093042004F125030DF00EFB04210544F5
:1003C000E37C9F0606D52A46052000230DF0D4FACB
:1003D00005210544E37C580606D52A460620636EAF
:1003E0000DF0CAFA0621054494F91330002B07DA00
:1003F0002A460720B4F850300DF0BEFA0721054414
:10040000237DDA070AD5A36C2A4600932F23019394
:100410000820E36C0DF0F0FA08210544237D1B074A
:100420000AD5E36D2A4600932F2301930B20236EF8
:100430000DF0E2FA0B210544237DDF0606D52A469E
:100440000C20A38B0DF098FA0C210544237D58064F
:1004500006D52A460E20236A0DF08EFA0E21054499
:1004600094F91430002B0CDAD4F894302A46009317
:10047000262301930F20D4F898300DF0BDFA0F21F8
:100480000544637D9A0707D52A461120B4F86830E1
:100490000DF072FA11210544637DDB060AD5636D08
:1004A0002A460093262301931420A36D0DF0A4FA8D
:1004B0001421054494F91530002B1CDA676F94F869
:1004C00078303F010BB147F00807B4F87A300020CC
:1004D0001B09421C5B0892B201D01046F9E7002AC2
:1004E00018BF024602F00F0317202A463B430DF0C7
:1004F00043FA17210544A37D1F071DD5D4F880704A
:1005000094F884303F010BB147F00807B4F8863007
:1005100000201B09421C5B0892B201D01046F9E78B
:10052000002A18BF024602F00F031B202A463B4355
:100530000DF022FA1B210544A37DD80607D52A46D3
:100540001C20D4F88C300DF017FA1C210544E37DF3
:100550001A0708D5236B2A4600932320636B0DF0FE
:100560003BFA2321054494F91730002B08DAA36BDA
:100570002A4600932720E36B0DF02EFA272105442D
:10058000A37EDB0606D52A463C20D4F890300DF039
:10059000F3F905442368EB1A3E2B11DCB4F89E30C6
:1005A00013B1FF2305F8013B2846D4F8A010B4F896
:1005B0009E200CF047FBB4F89E00AD1B284407E0DA
:1005C000044A054B0025256028461A6000E00420F7
:1005D00003B0F0BD40F92000680400202DE9F74386
:1005E0008846064600219146A4220CF08FFBC6F8EF
:1005F000008098F800309B09337198F80020012B97
:10060000C2F30112727198F8004004F00F07B7723C
:1006100098F80120B27198F8021098F8032042EA85
:100620000122328101D0A14A02E0082F04D9A04A58
:10063000A04B80201A6035E108F1040421463A46B7
:1006400006F10B000CF088FA06F1130000210822D5
:100650000CF05CFB3C44002708EB09039C4280F053
:100660002081257805F0F003F02B14D10134C4EB80
:100670000808C1441FFA89F9B9F1400F8ABF402325
:10068000A6F89E90A6F89E30B6F89E300020C6F8D8
:10069000A040E05406E12B090D2B05F00F0503D116
:1006A000637802340D330AE00E2B03BFA37862781F
:1006B00003F20D13013404BF03EB022303340D2DA9
:1006C00003D114F8015B0D3508E00E2D01BF6578EC
:1006D00005F20D1214F8025B02EB05251F4406EB30
:1006E000D70107F00703012202FA03F0CB7C0E2F9B
:1006F00043EA0003CB746CD029D8062F00F0AB80FE
:1007000017D8032F00F084800BD8974240F0C080A8
:100710002A46082D28BF082286F86A2006F16B00B9
:100720006DE0042F5BD0052F40F0B28086F89C204E
:10073000B5E0082F7DD06ED30B2F73D00C2F40F077
:10074000A780204629460DF083F8B083A7E01B2F31
:1007500000F0878026D8112F4AD009D80F2F40F0FB
:1007600097802623009306F1980006F1940166E035
:10077000142F69D0172F40F08B80204629460DF0AA
:1007800067F8C0F3C00300F0070286F87830102342
:100790009340A6F87A3020F00F0393400009F367E6
:1007A00070677CE0232F2ED008D81C2F70D12046F4
:1007B00029460DF04DF8C6F88C0070E0272F22D0A6
:1007C0003C2F65D1204629460DF042F8C6F890002E
:1007D00065E0204629460DF03BF830625FE02A468E
:1007E000082D28BF082286F8242006F1250006E0FF
:1007F000204629460DF02CF8A6F868004FE0214667
:100800000CF0AAF94BE02C4A2A4BA5201A6049E0CB
:100810007464356443E0204629460DF019F8A6F8C3
:1008200050003CE02F23009306F1600006F15C01CC
:1008300005E02F23009306F14C0006F14801224603
:100840002B460DF010F82AE02623009306F15800FD
:1008500006F15401F3E7204629460CF0F9FF7066D3
:100860001DE0204629460CF0F3FFC0F3C00300F062
:10087000070286F8843010239340A6F8863020F0D3
:100880000F0393400009C6F88830C6F8800006E0E0
:10089000FB0704D5094A074B82201A6002E02C446A
:1008A000DAE6002003B0BDE8F08300BF6FF9200056
:1008B00086F9200068040020ABF92000D2F920005E
:1008C000014B1860704700BF980B002010B50388DB
:1008D000044633B1B3F5B07F12D000230380032068
:1008E00010BD0E480E4900F049FF00F02FFA43F208
:1008F0001630FFF7EBFC4FF4B0732380012010BDDE
:10090000084B1B788B4204D1074B18680DF088FA0E
:10091000F1E78829EFD100F0BFFAECE7940400205A
:10092000EEF92000FC420020940B00200148002139
:1009300004F06CBD6C0400202DE9F04F9C4D0023A9
:100940002B709C4B87B01B788146990740F17881CA
:10095000994E9A4B9A4C316820461A88FFF73EFE12
:10096000B04607462870974E002840F00A81A379C8
:10097000013B032B00F2DF80934B944A1B7802F17A
:10098000080128332089D25A00F0EAF930600028A3
:1009900000F0CB8040234946ADF80A300397049716
:1009A00005970DF012FA637923B98948022145228F
:1009B000238905E0FFF798FC03468548012145227D
:1009C0000DF055F8A27A1AB1814882490DF084F8E9
:1009D00004AB00937A4803A900220DF10A030DF03D
:1009E0005DF940B1BDF80A30402B28BF4023ADF877
:1009F0000A30049B0593784BD3F800C0BCF1000F7C
:100A000000F08F803268724FDFF8B4B105A9009111
:100A1000BDF80A30584639467832E047BA460028D1
:100A20006ED02B78002B6BD19BF816301A070DD5A2
:100A300097F90630002B09DBBB7D1B0706D45C4B06
:100A4000A1221A70654A664B1A6059E094F9153074
:100A5000059A002B41DA049B9A4223D1BAF89E10E2
:100A60005B4F8A4205D38223BB7138465D490F2212
:100A700044E0BDF80A308A1A9A4294BF002201224B
:100A8000039938460DF023F90499B7F89E30BDF864
:100A90000A205B1AD7F8A0E09A423846714428BF72
:100AA0001A462BE001320399BDF80A3006D1BAF894
:100AB0009E209A4294BF0022012200E00122444F6E
:100AC00038460DF004F9BDF80A20BAF89E3093427A
:100AD00016D93846D7F8A01010E08AB1013218BFF5
:100AE000012200213A4840230DF0F1F8BAF89E2087
:100AF00037483F2ADAF8A01088BF40220DF052F99B
:100B00002B78002B3DD13768314807F13A01FFF7C8
:100B1000F3FB80B23887002833D1254BC1221A70ED
:100B20002FE0A1232B70304A02E0A3232F4A2B7021
:100B30002B4B1A6025E0636823F07F4323F0FF030B
:100B400013B9C3232B700CE06379032B09D11E4B1F
:100B50001E4A1B7802F108002833D15A228900F07E
:100B600039FA208900F08AF9306040B1076BD0F87B
:100B700034A000F01DF917B150461149B8470023C1
:100B800033602B780A4F306823B9002858D000F022
:100B900025F955E0C22B02D100F00AF950E000F02F
:100BA00007F93B78C32B23D100233B70032124E0BA
:100BB000D4290020383C0020443C0020CC390020BF
:100BC0004C0A00209C0B002093370020E0390020C5
:100BD000F00A0020570A0020980B0020FFF920009F
:100BE000680400200FFA20001FFA200030FA2000CD
:100BF000BF2B84BFA0233B7002212A78238912488F
:100C00000CF035FF114B124E1C6820460CF06EFAAA
:100C1000214602460C480DF0C5F80E4BD8F80040AE
:100C20001B782146283308489F5BFFF765FB80B29D
:100C3000009006F1080148463A4623460DF0D3F8E5
:100C4000287807B0BDE8F08F4C0A00206804002027
:100C5000E0390020933700202DE9F3411F46038837
:100C600004461646099D1BB1B3F5D07F32D04FE044
:100C7000314A03611268C3604260304A1370304ADF
:100C80001360304A1370FFF72FFB39462881BDF8F7
:100C9000202000F065F8A06000B331460DF095F813
:100CA000A368294A1A63A3685C63216921B12846B5
:100CB000002240230DF00BF8A668284606F13A0101
:100CC000FFF71AFB3087A06800F088F84FF4D07364
:100CD000238021E082291FD1E06818B900232380F6
:100CE000022025E0DFF8588000230093134A414694
:100CF0000CF0D4FFD8F8002023699A420ED10A9B49
:100D0000E06898472369013323610C4B1B7853B982
:100D10000023238003200BE0012009E0094A137817
:100D200001331370F1E7074B1B78032BF0D8AAE7C8
:100D300002B0BDE8F08100BF58130020D629002082
:100D4000480A0020D5290020C3DD2000024B1A6884
:100D5000024B1A60704700BF58130020A40B0020FC
:100D6000F8B507460F480D4616460DF0E6FA04465C
:100D7000A8B12946002303760B4B87801B6805F139
:100D80001002C36200F11A0351F8040B914243F8B8
:100D9000040BF9D16685054821460DF09CFA2046E2
:100DA000F8BD00BF7C040020940B0020A00B0020A5
:100DB00010B5044660B1083004F0ECF9214605484E
:100DC0000DF075FA2146BDE8104003480DF0C9BA90
:100DD00010BD00BFA00B00207C0400202DE9F341D2
:100DE0000446038F428D00F11A070093C06A39460A
:100DF00004F13A030CF0F7FF94F83A50C5F30115EB
:100E000075BB237E032B19D853B904F0C7FBC0234D
:100E1000B0FBF3F202FB130000F28110E06002E08D
:100E2000E3685B00E360134D134B2E681B6804F10D
:100E300008002B600DF0EEF92E6017E0266B3846A7
:100E4000618DD4F8348000F04DF82046FFF7B0FFF4
:100E500066B140462946334602B0BDE8F041184726
:100E6000204602B0BDE8F041FFF7A2BF02B0BDE8E6
:100E7000F08100BF58130020A40B002010B50446D9
:100E800004480DF00AFA20B18388A34201D000681B
:100E9000F9E710BDA00B002010B509480DF0FDF9D1
:100EA000044664B104F108000DF0BDF928B1237EB9
:100EB000204601332376FFF791FF2468F1E710BD48
:100EC000A00B002010B50446044821460DF049FA55
:100ED0002146BDE8104002480DF0E9B98804002021
:100EE000940F0020F8B506460C480F460DF0D5F9D2
:100EF000044600257CB104F11C00314610220BF0A1
:100F0000F9FD30B9A38DBB4203D12046FFF7DAFFCC
:100F100001352468EEE72846F8BD00BF940F002095
:100F20002DE9F84307461348884691461E460DF0C2
:100F3000B4F904460025D4B104F11C00394610224E
:100F40000BF0D8FD88B9A38D43450ED194F82E300F
:100F5000B3420AD104F12F00494632460BF0CAFDD4
:100F600018B92046FFF7AEFF01352468E3E72846AD
:100F7000BDE8F883940F00202DE9F8430746144894
:100F8000894690460DF089F904460025E4B14FB139
:100F900004F11C00394610220BF0ACFD90B9A38D72
:100FA0004B450FD1261D464508D030460CF09EF823
:100FB0004146024630460BF09DFD18B92046FFF72A
:100FC00081FF01352468E1E72846BDE8F88300BFCA
:100FD000940F00202DE9F04106460F480F46904639
:100FE0000DF05BF90446002594B104F11C00314674
:100FF00010220BF07FFD48B9A38DBB4206D1238F91
:10100000434503D12046FFF75DFF01352468EBE738
:101010002846BDE8F08100BF940F00202DE9F04183
:101020004668DAB0804630460D460CF05FF804465C
:10103000314603A813220CF0D1F8122C07DC35B18D
:1010400003AB18192946C4F113020CF0C7F80024A9
:10105000234608A8012145228DF81F400CF007FD0A
:1010600023460122214631A80CF001FD03A931A835
:101070000CF0A7FD03A80CF039F806462F480DF038
:101080000CF90446002C56D0251D28460CF02EF8ED
:10109000B04208D04DDDB8F80830DB0649D5A319B9
:1010A0001B792F2B45D103A8294632460CF04CF86A
:1010B00000283ED1FFF718F904F11C01A28DFFF7BB
:1010C0004FFE0546002834D0A1690CF07EFEE16B8E
:1010D000142391FBF3F203FB12130BB98DF82530A7
:1010E000AB8831A82387AB88D8F81070ADF82830CA
:1010F0000023009308A9402305F17802B8479DF921
:101100002630002B05DBE16B08A84B1CE3630CF0D9
:10111000BEFD04F12F0194F82E2008A80CF0DCFC91
:1011200008A805F13A01FFF7E7F828872846FFF7F6
:1011300055FE2468A6E75AB0BDE8F081940F002060
:101140002DE9F74F92468A790B46012A71D19AF917
:101150000620002A6DDBCA7C52066AD54E6E002E30
:101160004BD1354A354D1278D1F860C0283232F86B
:1011700005808F7AD1F85CB0624601F10B0905F168
:1011800008004146CDF804C0FFF7F6FE2C480DF0EC
:10119000D4F80446002841D0BBF1130FDDF804C099
:1011A000A8BF4FF0130B61465A4604300BF0D4FC35
:1011B000244BA3441B688BF8046004F11C0EA3614C
:1011C00005F108030FCB8EE80F0049463A46A4F814
:1011D0002C8084F82E7004F12F000BF0BDFC21460A
:1011E000268719480DF077F85046E16B4B1CE363F6
:1011F00003B0BDE8F04F0CF04ABD012E19D10E4AE4
:101200001249127801F108002832895A03F10B02C1
:101210009B7A03B0BDE8F04FFFF782BE50460C4901
:10122000A32310228AF8063003B0BDE8F04F0CF07B
:10123000B9BD03B0BDE8F08F93370020E03900203E
:1012400088040020940B0020940F0020E039002037
:1012500054FA20002DE9F04F89B00391002508A928
:1012600041F8045D00929846DDF848900CF0B9FC16
:10127000064608B33D2107980BF096FD83460BF810
:10128000015B079D044628460BF030FF013E361AED
:101290009A4928460BF0EEFD30B963782F2B04BF36
:1012A00004F1020B06F1FF36731E1BF803200292B5
:1012B00000220BF8032001E08346029000F078FA48
:1012C0000CF0EBFF002382461F461C461D4601938F
:1012D000BAF1000F00F0EA80002E58D0079B874932
:1012E000184604930BF0C6FD049BC0B9DAF804302D
:1012F0005946184604930CF0FDF80746002800F004
:10130000D2801BF8012C049B2F2A02D1984240F076
:10131000CA8038460BF0EAFE3B1801931BE0DAF86E
:101320000C00C0B1194604930CF0E4F807460028FD
:1013300000F0B980049B18460BF0D8FE3B5C3D2BB7
:1013400002D0222B40F0AF800230074438462221E1
:101350000BF02AFD0190384659460CF0CBF80028D6
:1013600000F0A180019B984200F29D80831913F840
:10137000013C029A934203D02A2A08D00130EBE7BD
:10138000029B2A2B03D0835D222B40F0B28055B103
:10139000D9F800309D4205D344453FBF009A2C2325
:1013A000135501340135D9F800309D4205D3444529
:1013B0003FBF009A3C2313550134D9F800206B1C21
:1013C000934205D344453FBF009A2F231355013460
:1013D000DAF804300235184604930BF087FED9F88A
:1013E000002000EB050C9445049B14D9C5EB020EBC
:1013F000009A08F101011019091BBEF1000FA8BFE6
:1014000073443F4ACDF810C00CF0CFFE044444456D
:10141000DDF810C04AD2D9F800309C4505D34445C8
:101420003FBF009A3E2313550134DAF80C300CF11B
:1014300001058BB31B787BB33B2B2DD0D9F8003043
:101440009D4205D344453FBF009A3B2313550134C9
:10145000DAF80C300CF1020C1846CDF814C00493E5
:101460000BF044FEDDF814C0D9F8002000EB0C05A9
:101470009542049B10D9CCEB020C009A08F10101B3
:101480001019091BBCF1000FA8BF63441C4A0CF0E3
:101490008CFE0444444505E0444504D9D9F80020B5
:1014A0002B1B934203D8DAF800A011E74CB1009946
:1014B000039822460CF076FC039828210CF023FBBD
:1014C00009E045B1822103980CF000FB03980D4917
:1014D0000F220CF067FCBAF1000F02D14FF0FF337E
:1014E00002E0D9F800304344C9F8003009B0BDE843
:1014F000F08F13F0DF0FD6D149E700BF65FA200067
:101500006AFA20000FFA20002DE9F743264E0F4615
:10151000984602A9002341F8043DB36C0446914665
:1015200098473346054608B1019921B99A6F1F4B78
:101530001A701F4A0AE0D4F888000A9B2A189A42B7
:1015400009D9D6F89420194B1A701A4A1A4B4FF041
:10155000FF301A6025E0B9F1000F0BD0B8F1000F91
:1015600008D02A4648440BF0F7FAD4F888301D44D6
:10157000C8F80050A37D1B0701D4002011E0B4F887
:1015800086303846D4F8801094F884200CF0D5FBCF
:1015900094F88430002BF0D038465F210CF096FA96
:1015A000012003B0BDE8F08330F52000D4290020ED
:1015B0006DFA200077FA20006804002070B50288D8
:1015C0000546C02A09D0D02A21D082B91B4B8521DB
:1015D000186803F0EFFEC02307E085290BD11848F7
:1015E0000CF05BFE044644B9D0232B8003E00023BB
:1015F0000380032070BD012070BDE3692BB1A16899
:1016000019B104F10C000CF0F3FD2468EBE7882914
:10161000EAD10B480CF041FE0446002CE4D0A3684C
:1016200053B104F10C0630460CF0FDFD20B1E36926
:10163000984730460CF0E5FD2468EEE7581300208B
:10164000980F00202DE9F04F3A4D87B00E4699468D
:1016500006A9002341F8043DEB6890460746DDF8F3
:1016600040A09847029034480CF017FE0446DDF87D
:1016700014B0002C51D06368184603930BF036FD6C
:10168000029B02468342039B07D044DD2189C906A1
:1016900041D51BF800102F293DD1184659460BF0B3
:1016A00053FD002837D12B6938469847C20704D527
:1016B000D4F810C0BCF1000F14D1830704D5D4F8BE
:1016C00014C0BCF1000F0DD1410704D5D4F818C0E7
:1016D000BCF1000F06D1020715D5D4F81CC0BCF12F
:1016E000000F10D04B46CDF800A038463146424698
:1016F000E04723895B0617D520462B6E39463246D4
:101700009847012005E06B693046D5F88C10984762
:10171000002001240AE02468ABE76B693046D5F865
:1017200088109847012001E001200446204007B0BE
:10173000BDE8F08F30F520009C0F002038B50A4B33
:101740001C7884B9094D012209481A700CF0A2FDD9
:10175000AB68084898476B6898472146BDE8384011
:10176000054803F053BE38BDDE29002030F52000C7
:101770009C0F002045162000B804002010B5044638
:101780004160094821460CF0A6FD23891B0609D5B6
:10179000216ACB6933B18B6823B1BDE8104003489F
:1017A0000CF099BD10BD00BF9C0F0020980F0020C9
:1017B000004870479C0F002008B5FFF7BFFF00F0FE
:1017C00089FA00F03FFF00F07FFDBDE808400148C6
:1017D0000CF088BC92FA20002DE9F7431F460388DD
:1017E000044616460B9DDDF8348013B1632B43D0BD
:1017F00068E03E4A03611268C36042603C4A43614C
:1018000013703C4A13603C4A1370FEF76DFD394675
:101810002881BDF82820FFF7A3FAA06000282FD068
:1018200031460CF0D2FAA368344A354E1A63A368E5
:1018300028465C632369A2689B013360E1680096D7
:10184000783240230C9FB8473268294B013218BFC9
:1018500001221A702169402328460CF06EFAA6680E
:10186000284606F13A01FEF747FD3087A068FFF7EA
:10187000B5FA6323238029E0822927D1E06828B9BB
:10188000012363610023238002202BE0DFF86490B2
:10189000002300931B4A49460CF032FAD9F8002085
:1018A00023699A4214D1B8F1000F01D0E068C04713
:1018B0002369013323610E4B1B7873B9003318BFC2
:1018C000012363610023238003200BE0012009E052
:1018D000094A137801331370EDE7074A1278032A97
:1018E000ECD892E703B0BDE8F08300BF58130020A6
:1018F000E1290020A40F0020DF290020C3DD200003
:10190000A00F0020E02900202DE9F04700248046A8
:1019100089469246264625460AEB05035B781AF867
:10192000057003EB0727BFB277B9002E0EDB01D09D
:10193000013620E008EB0400C4EB0901114A0CF069
:1019400034FC0126044416E0002E09DC55B108EBF6
:101950000400C4EB09010C4A0CF027FC044401E02C
:101960004FF0FF3608EB0400C4EB0901074A3B4681
:101970000CF01BFC04440235102DCDD12046BDE8EF
:10198000F08700BFC0FA2000C1FA2000C3FA20008F
:101990002DE9F047174686B04FF0FF328246894660
:1019A000BDF84080119C0592204E1BB1326A18464A
:1019B00005A990471E4D05982B68984700282CD004
:1019C0000CB1226800E022464146CDF8049002970F
:1019D000059BAF68CDF800A00F98B8476B68074625
:1019E0000598F6699847DFF8449001460E98B0478D
:1019F000D9F84C300E980F993A464CB19847226866
:101A00004244BA42A6BF4FF0FF332360226009E090
:101A10004745A8BF4246984704E073690E98D6F838
:101A20009010984706B0BDE8F08700BF30F5200061
:101A3000080500202DE9F047174686B04FF0FF3229
:101A40008046894603921E46194D1BB12B6A3046CB
:101A500003A99847DFF85CA00398DAF800309847AC
:101A6000E8B1AB6C304604A998470546049805AB2D
:101A70000193CDF80090DAF818604119039A4346B3
:101A80000B4CB04738B105982946B847636918B17F
:101A90000E98E16E07E063690E98A16F03E06B6931
:101AA0000E98D5F89010984706B0BDE8F08700BFB3
:101AB00030F5200008050020004870475010002035
:101AC00010B50446074821460CF005FC636804F194
:101AD0001A025968044802F02BFE01F02FFE6066DE
:101AE000012010BD50100020F4FA20002DE9F7432A
:101AF0000588044691461F460B9E15B1902D52D085
:101B00004DE0314BDFF8D8801B68056143602F4BF7
:101B1000C56045611D70C8F80050FEF7E5FB394609
:101B20003081BDF82820FFF71BF90746A06038B3C5
:101B300049460CF04AF9A368254A28461A63A36867
:101B400031465C63A3680C9D9B883381A268402367
:101B5000CDF800807832A847D8F800104B1C02D08E
:101B60001C4802F0E5FDA568304605F13A01FEF794
:101B7000C3FB2887A068FFF731F99023238014E086
:101B800015480CF0AFFA012363612780022018E0AA
:101B90000E4B1B78032B94BF0023012363610023AA
:101BA000238003200DE0822901D0012009E0E568AF
:101BB000002DEDD109480CF095FA012363612580D1
:101BC000E4E703B0BDE8F08358130020E2290020C9
:101BD000C3DD200025FB20007BFB200065FB2000EF
:101BE0006C100020F0B5038885B0AF2B04460E467C
:101BF0000ED0BA2B3DD0002B55D12E480CF072FAE6
:101C00002D4880210CF0F4FAAF23238001204FE00F
:101C100029480CF008FB08B9822EF5D127480CF0B2
:101C20003CFB274B1860264D29680029E8D001F1BC
:101C300044005C310CF06CF900282FD02F6801F0C3
:101C40007DFD2A68786653681E4859681A3202F08A
:101C50006FFD00210B4603221B480BF008FF29688B
:101C600019481A310BF0ADFF184B00221A80BA2325
:101C70002380134B15481B6831461A8B083352BA20
:101C800092B20092104A019253F8042C1269029207
:101C90000F4A1268FFF72AFF012808D9084B1A6873
:101CA00012681A60BFE700230380032000E00020D1
:101CB00005B0F0BDA1FB20007010002050100020E6
:101CC00080100020B3FB2000AC0F00205410002037
:101CD000940B002008B504480CF0DCFABDE808407D
:101CE0000248002103F092BB50100020C8040020DD
:101CF0002DE9F04F87B09B46109F002314460493B4
:101D00000122504B974281460D46BDF850A0159ECA
:101D10001A60039303DD01F011FD4B4B1860D6F8F8
:101D20000080B8F1000F5ED1C4F8008047480CF085
:101D300004FB286048B9129882210BF0C7FE129864
:101D400043490F220CF02EF879E0002F0CDD2168BA
:101D5000404B0844D3F80CC0C1F580714B46424655
:101D6000E0472368184420604FF00008B845226817
:101D70002BDA06A9002341F8083D5BF828002B6800
:101D8000C2F5807E0091D0F810C01A4411981FFA55
:101D90008EF31299E047304B05A912989B6C984737
:101DA000216808F101080144B8452160DEDA28689D
:101DB000284B0844D3F810C0C1F580714B4600226F
:101DC000E047236818442060D0E7002F0BDD286827
:101DD000204B10445F69C2F580714B460022B84722
:101DE000236818442060326823689A42A3DC02EB1F
:101DF0000A002968984211441298CCBF9A1A524698
:101E00000BF0D0FF134B48465B6898470146129889
:101E10000BF079FE336822685344934209DB4FF09C
:101E2000FF333360094829680CF09BFA00232B60CC
:101E300000E03360044A00231360039A136007B084
:101E4000BDE8F08F84100020A80F0020D8040020E7
:101E50000FFA20000805002030F520002DE9F04F92
:101E600087B0054610989B464FF0FF338946019294
:101E7000DDF84880BDF84C60149F059318B1854B80
:101E800005A91B6A9847059B5A1C02D0282B40F0D5
:101E9000F880002F00F0FB801BF001043AD03B6873
:101EA0002BB936B13C2388F80030012402E000242D
:101EB00000E034463B68012B05D8B4423EBF2F23D7
:101EC00008F8043001346B68184602930BF00EF9E1
:101ED0003A6800F1020A92450546029B0FD9A2F129
:101EE000020E711C08EB0400091BBEF1000FA8BF15
:101EF0007344694A0CF059F90444B4420CD23B686B
:101F00009A4505D3B4423EBF3E2308F8043001345D
:101F1000033502E0254600E00225A9F104094FF04F
:101F2000000A019B9A4580F28C804DB13B689D422E
:101F300005D3B4423EBF2C2308F8043001340135E8
:101F40003B689D4205D3B4423EBF3C2308F80430B1
:101F500001343A686B1C934205D3B4423EBF2F2331
:101F600008F80430013459F8043F02355B6818461C
:101F700002930BF0BBF83A6800EB050C9445029B0A
:101F800013D9C5EB020E711C08EB0400091BBEF14E
:101F9000000FA8BF7344404ACDF808C00CF005F903
:101FA0000444B442DDF808C04BD23B689C4505D3DD
:101FB000B4423EBF3E2308F8043001341BF0020F48
:101FC0000CF1010534D0D9F80030DB681B787BB305
:101FD0003B2B0BD03B689D4205D3B4423EBF3B2315
:101FE00008F8043001340CF1020C00E0AC46D9F8DA
:101FF0000030CDF80CC0DB68184602930BF076F881
:10200000DDF80CC03A6800EB0C059542029B0FD935
:10201000CCEB020C711C08EB0400091BBCF1000F97
:10202000A8BF63441C4A0CF0C0F80444B44204E066
:10203000B44203D93A682B1B934203D80AF1010A30
:102040006FE74CB14146119822460BF0ABFE119858
:1020500028210BF058FD09E045B1822111980BF0C1
:1020600035FD11980D490F220BF09CFE019B9A45FE
:1020700015BF3B684FF0FF33F6183B6018BF3E605A
:1020800005E0044B11985A69D3F89010904707B0B7
:10209000BDE8F08F30F520006AFA20000FFA20002A
:1020A0002DE9F04F89B0149C1E464FF0FF33834654
:1020B0008A469046DDF84890159DBDF85C70079300
:1020C00024B11A4B204607A91B6A9847079828286D
:1020D0000ED1169B8DE830000293189B0397049352
:1020E000404631464A46BDF84C30FFF7B7FE19E08E
:1020F0000F4B1B68984778B1169BCDF8009003935F
:10210000189B0194059302950497079859465246E7
:102110003346FFF7EDFD05E0044B28465A69D3F836
:102120009010904709B0BDE8F08F00BF30F5200057
:10213000080500202DE9F3410D463B49804617462E
:102140001E460AF097FE044670B93846314601AA89
:102150000BF068FE30B1019B23B16B602B6843F03C
:10216000010313E0314A54E0404631490AF082FE4F
:10217000044680B93846314601AA0BF053FE40B1FF
:10218000019B33B1AB602B6843F002032B60044624
:1021900046E0284A3DE0404627490AF06BFE0446E7
:1021A00070B908983946324601AB0BF073FE28B17E
:1021B000019BEB602B6843F00403E7E71F4A28E02C
:1021C00040461F490AF056FE044670B90898394641
:1021D000324601AB0BF05EFE28B1019B2B612B68F0
:1021E00043F00803D2E7174A13E0404616490AF0C5
:1021F00041FE044680B908983946324601AB0BF0DF
:1022000049FE28B1019B6B612B6843F01003BDE7C9
:102210000E4A0F4B1A6003E00E4A0D4B00241A6061
:10222000204602B0BDE8F081CFFB2000D4FB2000A7
:10223000E4FB2000E9FB2000F9FB2000FCFB200070
:1022400013FC200016FC20002BFC20002EFC20009C
:102250006804002046FC200070B50388064623B1C0
:1022600040F2191293421CD025E015480CF015F8E5
:10227000044694B104F128052846E368984704F120
:10228000100029460BF044FE28B101F057FA6368AC
:1022900020631B6A98472468EBE70A4880210BF00B
:1022A000A7FF08480BF0BFFF0028DED140F219134A
:1022B0003380012070BD00230380032070BD00BF68
:1022C000881000208C10002008B504480BF0E2FFB5
:1022D000BDE808400248002103F098B888100020AB
:1022E000E4040020F8B5069C194622680746124807
:1022F0001D4602F01DFA114A2168136816469942DC
:1023000003DB0F4802F014FA11E04A199A42C4BFE5
:102310005B1A9DB20B4B2A461B68384619440BF0DA
:1023200041FD23681D44336825609D4202DB4FF068
:10233000FF332360F8BD00BF7AFC2000CC100020E2
:1023400095FC2000F404002070B5028886B0A92A0C
:1023500004460D4635D00DD89B2A79D0A52A13D036
:10236000002A40F0DD80714B8521186803F022F8C7
:102370009B2396E0B72A00F09680C12A00F0BD802A
:10238000B32A40F0CD804DE0694B6A4A198881B983
:10239000598871B9998861B9D98851B9198941B9F0
:1023A000598931B9998921B9DB8913B91370A523EA
:1023B00077E002236048802113700BF019FFA923F6
:1023C0006FE05D480BF02FFF002873D05B4802F0F0
:1023D000AFF9574806F02EFF594E5A4B326819880C
:1023E000594802F0A5F900210B46022257480BF08C
:1023F0003EFB574955480BF0E4FB564A3C235649EF
:10240000564802F0B9F9554950480BF0F5FB544BCA
:102410004E481A6831680BF0C5FC524B00221A80F6
:10242000B3232380474B4F481B8829465BBA9BB296
:102430000093464B01934C4B02934C4B03934C4BF4
:102440001A683B4BFFF7C8F901281CD800206AE046
:1024500085292FD147480BF045FE474988780A78EF
:102460004B780090C87801900879029048790390E1
:1024700088790490C97937480591404902F07CF980
:102480003F4B00221A703F4B1B78002B3FF47CAF70
:10249000284B032228484FF4D8511A700BF0A8FE9D
:1024A000B723238006E024480BF0BDFE344B18B957
:1024B0001A780AB9012036E0324A1E7800211170DC
:1024C000002EDDD13049314802F032F93346032283
:1024D0001E4831460BF0CBFA2B491C480BF071FB20
:1024E0002B493C221D4802F047F918481B490BF0C4
:1024F00083FB284B1E80C1232380124B25481B8859
:1025000029465BBA9BB20093104B0193224B029376
:10251000174B1A68064BFEF79FFB0128B0D895E7CA
:1025200000232380032006B070BD00BF5813002095
:1025300024260020322D0020D0100020E2FC2000B4
:10254000F404002022260020F2FC2000E0100020ED
:10255000FFFC20002A2C002002FD20006A2C002015
:10256000CC100020B4100020E5222000D925200046
:10257000940B0020A8FC2000D8390020BAFC2000D1
:10258000282C0020292C0020E72B002012FD200001
:1025900008FD20009C1000209D25200008B570B18A
:1025A0008179442906D108480BF09CFD074B012294
:1025B0001A7008BD0648BDE8084002F0B9B80548E1
:1025C000BDE808400BF08EBD26FD2000292C002020
:1025D0002EFD20004AFD200037B510B38179412936
:1025E00019D102A9002541F8045D0BF017FB041E68
:1025F0000FDD0E4B2246184601990AF0ADFA03464C
:10260000055519460A4802F093F80A4B01221A7040
:102610000AE0094806E05F2906D0084802F088F879
:1026200002E007480BF05EFD03B030BDE72B002051
:1026300062FD2000292C002079FD20002EFD2000C5
:102640004AFD200041F23362074B00211980598076
:102650009980D980198159819981D981034B044886
:102660001A8002F0D3BE00BF2426002022260020BC
:10267000F8040020421C06D0044BD3F8B430C31A2F
:102680005842584170470120704700BF30F5200084
:10269000014BD3F8B400704730F52000F0B587B097
:1026A0000D460C99064614460E9B062952D8DFE8C3
:1026B00001F00404080F1A25410002A81021284A3D
:1026C00002E0284A02A810211B680BF06EFD24E0EE
:1026D0001F680A23B7FBF3F203FB127202A80092F1
:1026E0001021214A15E01F686423B7FBF3F203FBB6
:1026F000127202A8009210211C4A0AE01F684FF4CF
:102700007A73B7FBF3F203FB12720092184A02A825
:10271000102197FBF3F30BF048FD02A80AF0E6FC4A
:10272000A0421ADD02AB3046691C124A002CA8BF39
:102730001B190CE01F6838460AF0D8FCA0420CDDDB
:102740003046002CACBF3B193B1C0A4A691C0BF0FD
:102750002CFD03E0084801F0EBFF002007B0F0BDBE
:10276000A6FA20009BFD2000AAFA2000B0FA200063
:10277000B8FA20006AFA20009FFD200008B51B4827
:102780001B49FEF7FBFF1B481B49FEF7F7FF1B48E1
:102790001B49FEF7F3FF1B481B49FEF7EFFF1B48E1
:1027A0001B49FEF7EBFF1B481B49FEF7E7FF1B48E1
:1027B0001B49FEF7E3FF1B481B49FEF7DFFF1B48E1
:1027C0001B49FEF7DBFF1B481B49FEF7D7FF1B48E1
:1027D0001B49FEF7D3FF1B481B49FEF7CFFF00F054
:1027E00047FABDE8084000F097BC00BF180600207B
:1027F000BDFD200088050020C1FD2000F40500205B
:10280000C9FD200024050020D1FD20003C06002049
:10281000DCFD200048050020E7FD2000D005002059
:10282000EFFD2000AC050020F8FD2000CC060020C4
:1028300003FE20006006002011FE20008406002018
:102840001FFE2000A80600202DFE200030B5054602
:1028500087B0084806AC44F8040D8DE80E000A9BCA
:1028600006200393044922462B46FFF791F807B050
:1028700030BD00BF3BFE2000C5FD200030B5054641
:1028800087B0084806AC44F8040D8DE80E000A9B9A
:1028900006200393044922462B46FFF779F807B038
:1028A00030BD00BF3EFE200047FE200030B505468B
:1028B00087B0084806AC44F8040D8DE80E000A9B6A
:1028C00006200393044922462B46FFF761F807B020
:1028D00030BD00BFBA002100D9FD200030B505464B
:1028E00087B0084806AC44F8040D8DE80E000A9B3A
:1028F00006200393044922462B46FFF749F807B008
:1029000030BD00BF4DFE2000E4FD200030B505467F
:1029100087B0084806AC44F8040D8DE80E000A9B09
:1029200006200393044922462B46FFF731F807B0EF
:1029300030BD00BFBA00210066FE2000F0B587B0B0
:102940000F4616461D46044600F0F8FE0C9B06AAEC
:1029500042F8040D05490393009701960295022061
:102960002346FFF715F807B0F0BD00BFF3FD2000C8
:10297000F0B587B00F4616461D46044600F0DEFE51
:102980000C9B06AA42F8040D054903930097019693
:10299000029502202346FEF7FBFF07B0F0BD00BF03
:1029A000FCFD200010B588B005930A9B4FF0000E87
:1029B000072402900391049206938DE81040044886
:1029C0000449054A054BFFF76BFB08B010BD00BF7B
:1029D0008411002088110020180600206C050020BA
:1029E00030B5054687B0084806AC44F8040D8DE8BC
:1029F0000E000A9B06200393044922462B46FEF74D
:102A0000C7FF07B030BD00BF9CFF20000DFE2000B7
:102A100030B50546084887B0006806AC44F8040D98
:102A20008DE80E000A9B06200393044922462B469C
:102A3000FEF7AEFF07B030BDD8F720001BFE200028
:102A400030B50546084887B0006806AC44F8040D68
:102A50008DE80E000A9B06200393044922462B466C
:102A6000FEF796FF07B030BDCCF7200029FE20000E
:102A700030B5054687B0084806AC44F8040D8DE82B
:102A80000E000A9B06200393044922462B46FEF7BC
:102A90007FFF07B030BD00BFA5FF200037FE20003C
:102AA000054A06490023136053600B60044B1A6FFC
:102AB000044B1A70704700BFBC3900208C110020F5
:102AC00030F52000D42900202DE9F0411E468AB0BF
:102AD0004FF0FF330C461746109D0993804618B1FE
:102AE0001C4B09A91B6A98470999282911D1194B30
:102AF0002046DB699847184BCDF800800194029777
:102B0000039604951A68154815490023FFF7A6F99E
:102B10001CE0144B08461B68984788B10E4B1248BE
:102B20001B681249009300230193CDF80880039499
:102B3000049705960695094A094BFFF7B1FA05E097
:102B4000044B20465A69D3F8901090470AB0BDE86C
:102B5000F08100BF30F520008C110020F00600202D
:102B6000BC39002008050020342E002090110020E0
:102B70002DE9FF4140F20113324E334C00933246AF
:102B80002346FEF7C1FC002858D123683546044689
:102B900002AF0290F05478602A782AB3022C23D036
:102BA000B54204D92C2A05F1010301D01BE02B46C4
:102BB0005D1C1B783C2B17D128463E210AF0F4F807
:102BC00090B10023037000F1010828460BF081F951
:102BD00047F8240010B101344546DDE729461B487B
:102BE00001F0A6FD00E01D462B7853B12A46184897
:102BF000A91B01F09DFD174B9A6F174B1A70174ACE
:102C00000AE0174A13681819022808DD114BD3F897
:102C10009020114B1A70134A134B1A600EE00CB936
:102C200010600BE01149029D022C41F8235003F182
:102C30000103F5D1039C41F82340F1E704B0BDE85E
:102C4000F08100BF332D0020941100205500210099
:102C50006B00210030F52000D429002088002100DD
:102C60008C1100209800210068040020BC3900204D
:102C700001480249FEF782BDF00600206BFE2000ED
:102C800010B5FEF719FF0BF008FB044654B10A48D3
:102C900021460BF07CFB18B1074821460BF061FB85
:102CA0002468F3E7FEF708FF0BF0F4FA034B1A6F02
:102CB000034B1A7010BD00BF3807002030F520000C
:102CC000D42900202DE9F04F85B0DDF838809A46F0
:102CD0004FF0FF3389460393B8F1000F00F0C08036
:102CE000614C40B9E369484628219847D8F800303C
:102CF0005E4FABB90DE0236A03A998470028F1D0D5
:102D0000039B282BEED063694846D4F8901098476F
:102D1000A6E03B60FEF7D0FE0BF0BFFA05467DB99A
:102D2000D8F800203B689A4240F3858048468221CB
:102D30000AF0CCFE48464E490F220BF033F88FE0E4
:102D40003B685A1EFF2A9EBF4849581C0860494AE2
:102D50003E6898BF2C2102EB060BC6F5807606F183
:102D6000010698BFD15458463146434A0BF01DFA2C
:102D7000044605F10802311B5844FEF7C5FD044422
:102D80000BEB0400311B3D4A0BF00FFA41F23362AA
:102D90002B8B0444934206D00BEB0400311B384AC2
:102DA0000BF003FA04446B680BEB04005B68311B07
:102DB0000093344A05F11A030BF0F7F96B6C0444E5
:102DC000DB0707D50BEB0400311B2F4AAB6C0BF074
:102DD000ECF904446B6C980707D50BEB0400311B2E
:102DE0002A4AEB6C0BF0E1F904446B6C590707D5E8
:102DF0000BEB0400311B264A2B6D0BF0D6F9044473
:102E00006B6C1A0707D50BEB0400311B214A6B6D65
:102E10000BF0CBF904446B6CDB0607D50BEB04001D
:102E2000311B1D4AAB6D0BF0C0F904443B682D68A3
:102E30001C443C6073E702EB0A000E4998421144BF
:102E40004846CCBF9A1A52460AF0ACFFD8F8003078
:102E50003A6853449342A8BF4FF0FF33C8F800309C
:102E600005B0BDE8F08F00BF30F5200068120020EB
:102E70000FFA200038300020BC002100C6002100DD
:102E8000C8002100CC002100C6FA2000D1FA2000A1
:102E9000F8002100010121000A0121002DE9F04F75
:102EA000074687B08A480E460BF07FFA002840F3A9
:102EB000018140F20113874C874D0093314638461B
:102EC00022462B46FEF720FB0646002840F0FD80F8
:102ED0002B68E0547E480BF030FA314668220746F2
:102EE00009F014FF20467D4908220AF02DF9054615
:102EF000002840F0AF80237A5B2B06D04FF0000B08
:102F00005E465D46DFF80CA2B0E004F1080007F170
:102F100008010BF021FB0028F0D004F108005D212E
:102F200009F042FF002800F0CE804378821C3A2B43
:102F30000FD110462F21924609F036FF002800F0ED
:102F40008F80441C0570504609F086FDA2463883E8
:102F500084E041F233633B83437892462F2B7DD14B
:102F600010463E2109F020FF002879D0441C05704E
:102F7000514607F11A000AF05BF8AB462E46A2460E
:102F800001249AF80030002B58D0002C56D03B2B4F
:102F90000AF1010A52D150463D2109F005FF814650
:102FA00000284BD08046002308F8023B4178059367
:102FB000222943D1404609F0F7FE0390034600283A
:102FC0003CD001330493059B45490370504609F0FA
:102FD00051FF20B94046434909F04CFF38B35046F1
:102FE000414909F047FF68B999F802302F2B08BF13
:102FF00009F1030840460AF06CFF0028786018BF0A
:10300000012618E05046394909F034FF20B94046FE
:10301000374909F02FFF60B102230093504607F1B2
:1030200044014246039BFFF785F8044603E001256F
:1030300001E04FF0010BDDF810A0A2E79AF8003094
:1030400093B98DB186B1BBF1000F0FD07CB10125D2
:103050002C460CE0B346A2465D4607E0AB4600E0D6
:1030600083465E465D4601E0002400E05C469AF837
:1030700000300BB11F4A09E00DB91F4A06E0BBF151
:10308000000F01D11D4A01E016B91D4A1D4B1A60FF
:103090002CB1384607B0BDE8F04FFEF711BD3946F8
:1030A000194B0B489A6F194B1A7007B0BDE8F04FD7
:1030B0000BF057B9144BD3F89020144B1A70144AE4
:1030C000104B1A6001E00378FFDE07B0BDE8F08F17
:1030D00038070020372F00206C1200201301210038
:1030E0001C01210020012100740121002801210080
:1030F0002D0121005EFC200032012100430121004E
:10310000630121006804002030F52000D42900204C
:103110007B0121003F2F002008B504480BF0FDF88B
:10312000BDE8084002480349FEF728BB38070020E5
:10313000140700208C01210008B500F019F8024B9B
:1031400000221A7008BD00BF39310020024A1378EE
:103150001843107000F01AB839310020034A137870
:1031600023EA0000107000F011B800BF39310020D0
:10317000024A136843F00F031360704700B40D4018
:10318000014B1868C0B270473CB00D40014B18604D
:10319000704700BF3CB00D40F7B500F099FC00F05F
:1031A0003DFD00F0D7FC00F097FA01F063FA0BF058
:1031B00048F800F02BFDFFF7BFFF02200AF008FFE0
:1031C00002F07EF800F070FC00F000FA002000F041
:1031D0007FFB012000F07CFB4D49002000F04EFCFD
:1031E00002F0CAF90AF049FF04200AF0F1FE49484A
:1031F0000AF078FF48480AF075FF484801F098FA4D
:10320000474B484C18680AF06DFF474801F090FAA8
:10321000464B002518680AF065FF454801F088FA1A
:10322000444B18680AF05EFF434801F081FA1A2106
:10323000424801F07DFA424801F07AFA4AF6CD316F
:10324000404801F075FA002002F0B8F901F006F9E3
:103250003D48002102F0DAF801F074FE68460821CA
:1032600001F02CFA9DF807309DF8067043EA072715
:103270006B4603CB20606160344801F059FA615D10
:103280003348013501F054FA072D264EF7D1314D60
:10329000F179314801F04CFAEC6A4AF6CD3102205E
:1032A000A04739460320A0471A210120A0476946BC
:1032B0006B6B08220B20984700F040FD00F05CFD8E
:1032C00007F07EFE254A336813607368536007F089
:1032D000B3FF2348002102F099F800F0C1FC00215F
:1032E000204802F093F80AF082FF1F480AF075FFA9
:1032F00000F0E0FB08200AF06BFE00F0E1FB01F0BB
:10330000F7FF10F0FF0FF8D101F04CF9F5E700BF1F
:10331000355520004DFE2000A5012100BD012100F2
:10332000CCF72000FE420020C4012100D8F7200085
:10333000CB01210000F82000D201210046FD200031
:10334000DD012100E7012100A4070020EB0121009D
:103350000902210004F720000F022100D8390020C3
:10336000400800204407002030F8200070B5058890
:103370000446772D30D07E2D3FD0002D4DD101F069
:1033800097FF294B1870294B1D601D462B68284A52
:10339000264E52F823204AB126480021C154936892
:1033A00080209847336801333360EFE7224A137077
:1033B000772320E01F4AD256002A12DB1B4A1368EB
:1033C00001331360194B1C4A1B6812789342F1DBDE
:1033D0001A4B1B68002BEBD0184A00231360134ACA
:1033E000EFE7114A00201178114A52F8232001F02A
:1033F000E1FF30B97E23238013E00B4B1B788B4217
:103400000FD10A4B0B491A688B5C03F07F038B5476
:103410000A4A136801331360D0E7002303800320B6
:1034200070BD012070BD00BFE64200207012002078
:1034300054070020E74200203A3100207412002097
:10344000094B1A780023934204DA084951F82310F3
:10345000814207D106490748CA5C62F07F02CA541C
:1034600001F0ECBF0133EEE73A31002054070020B1
:10347000E74200204407002008B5094808210AF067
:10348000D1FD03210422002000F0D6FB002000F033
:103490003DFB04480021032200F070FB012008BD21
:1034A00000900D406935200008B5094810210AF048
:1034B000B9FD04210A46022000F0BEFB022000F004
:1034C00025FB04480221042200F058FB012008BD1E
:1034D00000B00D406935200008B5094820210AF0E8
:1034E000A1FD05210422022000F0A6FB022000F02D
:1034F0000DFB04480221052200F040FB012008BD1D
:1035000000B00D406935200008B5094840210AF097
:1035100089FD06210422022000F08EFB022000F02B
:10352000F5FA04480221062200F028FB012008BD1C
:1035300000B00D406935200008B5094880210AF027
:1035400071FD07210422022000F076FB022000F02A
:10355000DDFA04480221072200F010FB012008BD1B
:1035600000B00D406935200038B5054611480C46BD
:103570000AF082FEE8B10F4810210AF06BFE1DB977
:10358000032C16D10C4810E0022D12D1042C01D1CD
:103590000A480AE0052C01D1094806E0062C01D1B1
:1035A000084802E0072C04D10748BDE83840FFF77F
:1035B00047BF38BD781200203CF620005CF62000A2
:1035C0006CF620004CF620007CF62000014800211B
:1035D0000AF040BE7812002010B5074CFF2323608C
:1035E0004FF4FA6000F0B4F800213022062000F019
:1035F0003FFB0023236010BD00920D40802870B572
:103600001ED1104E104D3368002423F08003336028
:103610002B68204643F080032B600C4B07211C6075
:10362000224600F009FB3368204623F04003336054
:103630002B68062123F040032B60012200F0FCFAE6
:10364000002070BD20940D4000940D4000920D406C
:1036500001280CBF014B024B18687047C439002089
:10366000C8390020812803BF024B012019600020C7
:10367000704700BF80120020813801289ABF024B9A
:1036800018680020704700BF80120020F8B500F0D5
:1036900083F80F4B0024D3E900673A46B04238BFA5
:1036A0007A1C15460443C3E90045DFF828E0DEE94B
:1036B0000001821B61EB070312196B41CEE9002365
:1036C00001F060FD18B1BDE8F84001F0EBBCF8BDB9
:1036D000380A0020400A00200F4B104A1A6053F8A5
:1036E000042C42F0050243F8042C53F8042C42F059
:1036F000020243F8042C0A4A136843F001031360E2
:10370000084B00221A60042243F80C2C012243F8D3
:10371000082C0F22DA62704714E000E047E801004D
:1037200008200D400C000340034BD3E90023100A8E
:1037300040EA0360704700BF380A0020034BD3E91A
:103740000023D00B40EA4340704700BF400A0020EE
:10375000054B18601C3B1A6842F001021A601A6897
:10376000D207FCD4704700BF2800034010B5064CB8
:10377000236823F001032360FFF788FF236843F0E9
:103780000103236010BD00BF10E000E0014B18688A
:10379000704700BF84120020074B084A19680433A1
:1037A0001B681268120442EA0323054A0B4310689F
:1037B00043EA0060704700BF40500D4048500D4044
:1037C0004C500D4010B50446114B1B68DB07FBD570
:1037D0000AF057FCFFF7E0FF231A062BD8BFC41DE1
:1037E0000C4B220E1A60C4F3074243F8042CC4F3B6
:1037F000072243F8082CE2B243F80C2C0AF03DFCF7
:10380000054B91201C60BDE8104000F07FB900BF5F
:1038100050500D404C500D408412002008B500F06F
:10382000A7FE064B002291201A6000F087F9912034
:1038300000F078F9BDE8084001F00CBE84120020C9
:103840000023084A1068084A9958084205D01A44CB
:10385000D268906910F0800003D02C33582BF0D13F
:103860000120704728200D40ACF62000164A38B5DC
:103870002C2303FB00234FF6BF72DC680546236C44
:1038800062649BB213F050020DD0A369DB0609D429
:103890000E4B53F825301BB12068C0B29847F4E7AF
:1038A0002368F2E738BD13F4D06F0BD04FF44073A8
:1038B0002363FF236360E36AE262E362236B43F006
:1038C0000103236338BD00BFACF62000881200203E
:1038D0002DE9F04F012885B0064600F2BF802C2468
:1038E0004443604B1D1995F920A005F12007BAF15A
:1038F000000F9946C0F2B28095F92230002BC0F239
:10390000AD80594800F0A6FE584A59F804301168B5
:10391000EC680B43136051686B6895F921B00B4359
:1039200053609168AB6895F822800B439360002345
:10393000C4F8C83F2B690BEBCA021A6095F8233014
:103940005FFA88FC01939DF80430604619462A7D91
:10395000CDF80CC0029300F079F9029BDDF80CC0A1
:1039600019466046082200F067F94FFA88F8404986
:103970004FEA08389DF9042058F80100012303FAA2
:1039800002F2024348F801204FEA0A3A5AF80100CD
:1039900003FA0BF202434AF801205022A263A26B01
:1039A00095F8240042F4D062A263022262634FF4CD
:1039B00040722263AA696262EA69A2627022E262CC
:1039C00042B2002A0C4614DB95F92510294D41EA34
:1039D000C20129607979120315594FB2BB402B43BC
:1039E0001351002200F028F9234A136843F40043DE
:1039F00013602C2303FB069393F8265020336FB2F9
:103A0000002F1CDB93F807A0EDB25FFA8AF8284676
:103A1000414601223F0300F019F94FFA8AFA3A5958
:103A2000012303FA0AF313433B5108222846414677
:103A300000F002F9104A136843F4804313602C230A
:103A400003FB0696F26896F82800136B43F0010317
:103A5000136305B0BDE8F04F00F058B805B0BDE8FD
:103A6000F08F00BFACF620004138200028200D4028
:103A700020940D4004410D4030D0004001289CBFEF
:103A8000014B43F82010704788120020012808D805
:103A9000044B2C2202FB0030C3689A699206FCD4C6
:103AA00019607047ACF62000014B00221A60704785
:103AB00000500D40014B08221A60704700500D4025
:103AC000024BA0221A6050221A60704700500D402D
:103AD000074A084B1A60084B80321A60074B803245
:103AE0001A60074B80321A60064B074A1A6070470B
:103AF00000E100E09C1200209012002094120020AF
:103B00009812002008ED00E000002000044B41095D
:103B10001A6800F01F000123834042F821307047EB
:103B20009C120020044B41091A6800F01F00012379
:103B3000834042F82130704790120020044B410925
:103B40001A6800F01F000123834042F821307047BB
:103B500098120020054A064B1A60064B1A68064B5D
:103B60001340B3F1807FF8D1704700BF010102011B
:103B700000200D4004200D4000000101024B02EB2B
:103B8000C10243F822007047A0120020F8B5074692
:103B90000E46094D002405EB411547FA04F3DB07F7
:103BA000E1B204D555F824300BB1304698470134C2
:103BB000082CF2D1F8BD00BFA01200202DE9F0477B
:103BC00080464FEA0837DFF8409007F1804505F559
:103BD000592500F0CDFCD5F8186457F809404FEA94
:103BE000C80A24FA0AF446EA0400E4B2C0B2414624
:103BF000F6B204FA0AF4FFF7C9FFC5F81C6447F8E7
:103C00000940BDE8F08700BF18970D400248002129
:103C1000802209F07BB800BFA0120020034A044BA9
:103C20001A60044B803A1A60704700BF80400D4014
:103C30002413002020130020034B01EBC0011B685C
:103C400043F82120704700BF24130020034B01EBF1
:103C5000C0011B6843F82120704700BF20130020DB
:103C6000024A136843F030031360704700700D4040
:103C70000E2870B50BD1164B164E1C6844F0020589
:103C80001D60356825F03F0343F001033360124E99
:103C9000336823F0FF031A431143014331600F4B94
:103CA0001B681B06FBD50E4B0E4A1B6812680E28BC
:103CB00003F0FC0343EA022308BF064A9BB204BF99
:103CC0001560034A9BB208BF146018B270BD00BFF4
:103CD00034000144F486084008700D4000700D4027
:103CE0000C700D4010700D40024B1868B0FA80F057
:103CF0004009704700B7084010B58F20064CFFF709
:103D00001DFF8F20FFF70EFF206818B101F096FB12
:103D10000023236010BD00BF28130020064A13684B
:103D200043F002031360536843F002035360936847
:103D300043F002039360704748200D4007B50C48DC
:103D400000F088FCFFF7EAFF0A4B1A6842F0020213
:103D50001A6000220192019A0F2A02DC019A0132B4
:103D6000F8E71A6822F002021A6003B05DF804FB5B
:103D7000E93C200054200D40064A136823F002035A
:103D80001360536823F002035360936823F0020327
:103D90009360704748200D40084B93F90020002A9B
:103DA00009DB074AED2111601160E32111601A78E7
:103DB00062F07F021A700120704700BF3B31002083
:103DC00038880840094B1B689B07FBD4084BED2241
:103DD0001A601A60074A12680AB1EF221A60064A8E
:103DE0000120137803F07F03137070474C8608405E
:103DF000388808402C8608403B31002038B5A0F1B7
:103E00000B04E3B20F2B054613D80B4B1B6813F0C2
:103E10003F0302D0FFF7D6FF012304EB8404074AD7
:103E20000B3414600BB1FFF7B7FF054BE8B21D7000
:103E300000E0FF2040B238BD488608403C8608407C
:103E4000300A002010B50B4B1B68990603D1FFF711
:103E5000A3FF012300E00023074A1268D207FBD525
:103E6000064A1468C4F300140BB1FFF7ABFF2046F9
:103E700010BD00BF48860840648608404C86084054
:103E8000044B186800F02200A0F12003584258416A
:103E9000704700BF4C860840024B186800F0400095
:103EA000704700BF4C86084038B50C4600296ED0DC
:103EB00010286ED8DFE800F0090F1A1C236D334478
:103EC000496D6D6D6D6062646900334B1B68003332
:103ED00018BF012356E0314B05221B6803F07F0316
:103EE0000B3B93FBF2F30B33DBB24BE02C4B00E0CC
:103EF0002C4B1A68043B1B6843EA022342E02A4B1E
:103F0000002008601A68243302F001020A601B686E
:103F100013F0200337D042F002020A6038BD234B71
:103F20001A680023D2B2224901EBC3000079904203
:103F300002D851F8333025E001330E2BF3D11FE0C6
:103F40001C4B1B685BB2493B1CE01B4B1B68990672
:103F500003D1FFF721FF012300E00023174A126875
:103F6000D207FBD5164A1568493DEDB20BB1FFF7F4
:103F700029FF6DB2256006E00B2303E01A2301E060
:103F80006FF017032360002038BD0723FAE70220F3
:103F900038BD012038BD00BF2C8608403C86084053
:103FA000CC850840D48508400086084040860840FB
:103FB0003CF7200058860840488608406486084040
:103FC0006086084038B505460C46134B1B689B07B6
:103FD000FBD4124B93F90030002B01DBFFF7DCFE22
:103FE0000F4BEE221A60691E1A60A21C43F8102CB7
:103FF0002144022000F04AFA013C0A4924012143ED
:10400000022000F055FA022000F05CFA022000F0D5
:1040100071FA002038BD00BF4C8608403B310020BB
:104020003888084002C001C0F8B51F4B93F9003032
:10403000002B0DDBFFF7B0FB0446FFF7ADFEFFF7EB
:10404000ABFB6FF009031B1BC342F8D4012600E051
:104050000026FFF7F7FE18B3144C236899061FD407
:10406000134DE9232B60042723689A0707D4013FE7
:1040700017F0FF0703D00620FFF76AFBF4E7236879
:104080009B0704D4EE232B6001242B6004E02068FE
:1040900010F00200FBD1044626B1FFF793FE01E0C9
:1040A0000220F8BD2046F8BD3B3100204C86084078
:1040B00038880840044B1A6810B142F0010201E050
:1040C00022F001021A6070470086084038B50C469D
:1040D000072855D8DFE800F0040F1B1F26543B4F7C
:1040E000012903D1FFF758FE002038BD002949D12E
:1040F000FFF768FEF8E7A1F10B030F2B42D8C8B217
:10410000FFF77CFE431C0CBF0320002038BD8CB29F
:10411000E2B21D4B02E08CB21C4BE2B2240A1A60E0
:104120005C60E1E731F003052CD101F00100FFF7FD
:10413000C1FF174B14F002001A681BBF284642F05B
:10414000200222F020021A6008BF1A6038BD01F177
:1041500018031F2B16D80D230E49DA0051F833002F
:10416000844204DC8B181A790B4B1A60BCE713F1FC
:10417000FF33F1D2B8E7CCB2084B49341C60B3E747
:10418000012038BD022038BDC8850840D0850840D0
:10419000248608403CF720004086084058860840A6
:1041A0000B280DD1082A0DD161B1074B013953F805
:1041B000042D01F8012F054A9342F8D100207047E1
:1041C0000120704702207047C8850840A885084034
:1041D0000B280DD1082A0DD161B1074B083111F818
:1041E000012D43F8042F054A9342F8D1002070476F
:1041F0000120704702207047A4850840C48508400C
:10420000F8B52F4F3B6813F0400308D02D4D2B68B5
:104210001E06DCB205D52C4BED221A601A60002078
:10422000F8BD042CF7D9023C8C42F4DCE4B2032C38
:104230001BD001190139032000F030F9631E234916
:104240001B010320194300F033F9032000F03AF971
:10425000032000F04FF9032000F058F90028FAD1AC
:104260002B682E683106D6D506E02B6803702B68C4
:1042700043702B688370F3E7A3F149056DB2A9B2CF
:10428000042006F0AFFF124B06F07F0103201D60F3
:1042900006F0A8FF0F4B06F07F061E603B685A062B
:1042A0000BD5074B1B681B0603D50B4801F0C6F85E
:1042B00003E0054BED221A601A602046F8BD00BFEE
:1042C0004C860840288808403888084002C0010C05
:1042D000C8390020C43900207C070020F8B52B4ED7
:1042E000357815F001054ED1294B01241C605C6026
:1042F0009C60A3F59323A3F51473F8221A60092296
:10430000C3F89021152270331A6003F59B230B220A
:1043100003F59E731A60A3F59B23A3F5F073402267
:104320001A601A687F2742F020021A60D52243F8EB
:104330001C5CDF62DA61174B1878FFF75FFD164AE5
:104340008D20136843F004031360FFF7DFFB134B6A
:104350008E201F60FFF7DAFB022000F0BFF8104943
:10436000022000F09BF8032000F0B8F803200C496D
:1043700000F08CF80B48294601F048F833782046C5
:1043800023433370F8BD0020F8BD00BF3B3100204F
:10439000A8200D40300A00208C86084094860840F2
:1043A000288808407C07002038B503880446E3B11C
:1043B00040F2BE32934203D000230380032038BD75
:1043C000822915D106F0B4FE06F048FE8021FFF7E1
:1043D00017FF002805DD80B206F024FE0C4B1B6998
:1043E00098470C4B1A78520604D440F2BE3323800F
:1043F000012038BD00221A70074B1D68FFF7E2FC50
:10440000FFF76CFFAB06F0D0FFF7C6FCEDE700BF8F
:1044100000F820003B3100204886084008B50348DA
:1044200001F00CF8024B00221A6008BD7C07002046
:1044300034880840064B07481A68042A1FBF0649FB
:104440000A7842F040020A7000221A6000F0F6BFBB
:104450002C8808407C0700203B31002010B5094C17
:1044600000212046402208F051FC074B01221A602F
:104470002E205C60FFF74AFBBDE810402F20FFF7BD
:1044800045BB00BF0000002004F00F4003289EBF82
:10449000014B0001195070470000002003289EBF07
:1044A000024B03EB00104160704700BF000000208A
:1044B00003289EBF024B03EB00108160704700BFD2
:1044C0000000002003289FBF034901230A6883409E
:1044D0009CBF13430B60704728F00F4003289FBF19
:1044E000034901230A6883409CBF13430B60704754
:1044F00020F00F4003289FBF034901230A6883402F
:104500009CBF13430B60704714F00F4003289FBFFC
:10451000044B03EB0010806800F0070088BF002008
:10452000704700BF00000020024B4FF0FF321A60BE
:10453000704700BF04F50F40014B01221A6070471D
:104540004CF00F40094B1A6812F4801F1A46F9D13B
:10455000043B196821F4803119601168C903FCD447
:104560001A6842F400321A60704700BF04200D4000
:1045700010B50A4B1A681C4612F0030F0CD0084BFA
:104580001A685101FBD41A685201FCD5FFF7EEF806
:10459000FFF7D8FF0023236010BD00BF58200D4057
:1045A00004200D4038B5254B1C6814F03F0413D18E
:1045B000234B53F8243023B1984768B10134052CBC
:1045C000F6D1204D2B783BB1FFF7E0F80446FFF71A
:1045D000E3F8201A092801D830BF38BD002CFBD0E1
:1045E000194B1A6822F400321A60184A1168C9027D
:1045F000FBD4196841F4803119601368DB03FCD5E2
:10460000FFF7CAF8201A092803D8BDE83840FFF799
:1046100099BF63280E4C02D92B78022B00D00123BE
:10462000236000F0BDFE20B1FFF78CFF0023236064
:1046300038BDFFF7ABF80028CED1F5E74886084033
:104640002C1300203C31002000200D4004200D40A0
:1046500058200D400023064A52F82310814206D00C
:1046600011B942F8230070470133052BF3D170478D
:104670002C130020054B00221A60054A136843F0F2
:1046800004031360034B01221A70704758200D4039
:1046900010ED00E03C31002010B59020064CFFF7F3
:1046A0004DFA9020FFF73EFA206818B100F0C6FEE0
:1046B0000023236010BD00BF4013002030B5184B0D
:1046C0001A78431E3AB9174A1278122A03D1164AA9
:1046D00012784B2A03D001F52011273117E04A0840
:1046E00002F12814B4F1281F04D014F8015D03F876
:1046F000015FF7E701F5201127310023934205DA26
:1047000011F801598418E5540133F7E730BD074A21
:10471000914204D011F8012903F8012FF7E730BDC9
:104720002B0028002A002800290028002700280044
:104730000FB407B504AA52F8041B0448019200F014
:104740004DF803B05DF804EB04B070478C0700200F
:104750001FB5084C8DE80300114602A81A460294C2
:10476000CDF80CD000F03AF8009B00221A7004B08B
:1047700010BD00BF83E120000EB43FB5094B07AA6E
:1047800052F8041B0190049304A801AB0392059313
:1047900000F024F8019B00221A7006B05DF804EBCB
:1047A00003B07047C5E1200070B505460C46102CDB
:1047B00007D92B68686808491022984750B9103CFF
:1047C000F5E734B12B6868682246BDE870400249BD
:1047D0001847204670BD00BF9D0221002DE9F04F13
:1047E00080468FB0069107920026069B1B78002B0F
:1047F00000F05F83069B1C4613F8012B1AB9069B39
:104800009C4203D10FE0252AF5D1F8E7069BD8F8A2
:104810000400E51A0699D8F800302A46984700287F
:1048200040F02A832E442378002B00F042836378E3
:10483000611C002B00F03D8300240A4611F8013B67
:104840002B2B11D006D8202B11D0232B12D144F0C2
:104850000804F2E72D2B04D0302B0BD144F01004C8
:10486000EBE744F00104E8E744F00604E5E744F030
:104870000204E2E7A3F1310108290DD8134600250F
:104880001A4613F8011BA1F13000092811D80A2299
:1048900002FB0515303DF3E72A2B09D1079B0132B6
:1048A0001D68191D002D0791B8BF44F0010400E0F8
:1048B000002513782E2B1CD15178531CA1F1300008
:1048C00009280ED8194600270A780B46A2F13000B5
:1048D000092801F101010FD80A2303FB0727303F04
:1048E000F2E72A2906D1931C079A111D0791176830
:1048F00002E013464FF0FF371A786C2A09D15A7834
:104900006C2A02D144F080040AE0013344F06004D0
:104910000BE0682A09D15A78682A03D144F02004B0
:10492000023302E0013344F040041A78642A3CD098
:104930001FD8462A48D00DD8252A5AD003D8002A95
:1049400000F0B78257E0412A4AD0452A53D144F4B7
:10495000424450E0582A31D004D8472A4BD144F47D
:10496000A13448E0612A38D0632A44D144F4A064D9
:1049700041E06E2A3AD007D8662A22D027D3672A88
:1049800028D0692A11D036E0732A2CD006D86F2A95
:1049900011D0702A2FD144F440742CE0752A07D02E
:1049A000782A28D144F4C85425E044F4245422E061
:1049B00044F410641FE044F488541CE044F4B2440E
:1049C00019E044F4007416E044F4844413E044F421
:1049D000024410E044F481340DE044F4C1340AE0B0
:1049E00044F4E13407E044F4806404E044F4E06417
:1049F00001E044F4C0640133069304F4E063B3F5CA
:104A0000806F00F0AA8116D8B3F5807F2BD0B3F564
:104A1000407F7FF4EAAE079BA04914F4804F03F176
:104A200004029F4818BF08460DF1330107920F4654
:104A30001A680023C5E1B3F5C06F08D0B3F5E06F85
:104A400000F03182B3F5A06F7FF4CFAE00E2D8F86A
:104A50000030D8F80400934901229847002840F01C
:104A60000B820136C1E6002FACBF24F010040127F1
:104A700014F40053039304F0E00337D0402B17D015
:104A800008D8DBB1202B2AD1079B1A1D079293F976
:104A9000002017E0602B11D0802B20D1079B07331B
:104AA00023F0070303F108020792D3E900230AE089
:104AB000079B1A1D0792B3F9002003E0079B1A1DFC
:104AC00007921A68D317002A73F1000109DA5242DB
:104AD00063EB4303CDE900234FF0010933E00022EB
:104AE0000023CDE900234FF000092CE0402B16D025
:104AF00007D8CBB1202B20D1079B1A1D07921A781B
:104B0000EEE7602B10D0802B17D1079B073323F0E3
:104B1000070303F108020792D3E90023E1E7079BAB
:104B20001A1D07921A88DBE7079B00211A1D0792BE
:104B30001B681846CDE90001D5E700220023CDE926
:104B400000234FF0000904F4C053B3F5805F0CD08C
:104B5000B3F5C05F33D0B3F5006F4FD1DDE900236B
:104B60000DF1360ACDE9042304E0DDE900230DF15F
:104B7000360A15E0DDE9042313433AD0DDE90401E8
:104B80000A22002307F090FCDDE9040130320AF824
:104B9000012D00230A2207F087FCCDE90401E9E793
:104BA00052EA030125D002F0070130310AF8011D55
:104BB000D10841EA4371D8080A460346F0E7384B6A
:104BC00014F4804F0DF1360A344908BF1946DDE967
:104BD000002352EA03000CD002F00F00085C4FEAF9
:104BE000131E0AF8010D100940EA037002467346CD
:104BF000EFE70DF1360BCAEB0B0B03E00DF1360AB4
:104C00004FF0000B41F6080241F208035F4502EA4B
:104C100004028CBFCBEB070700279A4202D1002F7A
:104C200008BF012741F608018A4207EB0B030DD1AB
:104C3000DDE9000150EA010208D01B4914F4804F5D
:104C40001A4A4FF0020C18BF0A4602E04FF0000C5F
:104C500062460399A1B1B9F1000F0AD104F006012F
:104C600002290AD00629124904BF4FF0010C0A4656
:104C700006E04FF0010C0F4A02E00F4A4FF0010C22
:104C800063449D428CBFED1A002514F0010922D126
:104C9000E30613D52F444D461DE000BF68022100F6
:104CA000790221009B0221008D0221008A0221004D
:104CB0009202210090022100C901210040462946AC
:104CC000CDF80CC00092FFF76FFD009ADDF80CC024
:104CD000002840F0D180BCF1000F0DD01146D8F86B
:104CE00000306246D8F80400CDF800C09847DDF8DF
:104CF00000C0002840F0C0803C465E44102CD8F82C
:104D000000300DD9D8F804006C491022CDF800C04D
:104D10009847002840F0B080103CDDF800C0EDE777
:104D20005CB1D8F8040065492246CDF800C0984728
:104D3000DDF800C0002840F09F80D8F80030D8F897
:104D4000040051465A4666449847002840F0948033
:104D50003E44B9F1000F79D073E0079BD3F800A06F
:104D60001A1D0792BAF1000F09D05346994699F8D7
:104D700000200133002AF9D1CAEB090903E0DFF86A
:104D800040A14FF00609002F02DBB94528BFB94604
:104D90004D458CBFC9EB0505002514F0010405D174
:104DA00040462946FFF700FD002865D1D8F80030BD
:104DB000D8F8040051464A46984700285CD14E4432
:104DC0003EE052EA030E0ED002F00F0E10F80EE095
:104DD0004FEA131C01F801ED4FEA121E4EEA037E62
:104DE00072466346EDE70B467F1A01BF302201276A
:104DF00001F1FF3301F8012C03377822BD4203F89B
:104E0000012C4FF0300203F8022C88BFED1B4FF04D
:104E1000230298BF002514F00104A3F1030903F84D
:104E2000032C04D140462946FFF7BEFC20BBD8F82E
:104E30000030D8F8040049463A469847E0B93E4465
:104E400024B140462946FFF7AFFCA8B92E44CCE474
:104E5000079B012D03F104021B688CBF05F1FF3590
:104E6000002514F0010407928DF8203008D1404647
:104E70002946FFF799FC10B14FF0FF301AE02E449D
:104E8000D8F80030D8F8040008A901229847002873
:104E9000F2D16F1C2CB140462946FFF785FC002853
:104EA000EAD13E44A1E4079B1A1D1B6807921E60CD
:104EB0009BE430460FB0BDE8F08F00BF58022100E0
:104EC00094022100F8B50388064615462BB14A2BFB
:104ED00015D0002303800320F8BD174809F0DDF941
:104EE00004462CB1201DA16809F082F92468F8E776
:104EF000124B01221A704A2333800120F8BD882901
:104F0000FBD10D4809F0C9F90446002CF3D0231D4C
:104F10009D420ED10848214609F0C9F9084B626943
:104F20001F681A60A2691D460AB1E06990472F60A8
:104F3000E1E72468E9E700BF441300203D31002089
:104F40005813002010B5064B002406481C7009F0C9
:104F5000A1F92146BDE81040034800F057BA00BF50
:104F60003D310020441300209407002070B5044612
:104F7000E3610B4B049D1B786561A26143B1094D50
:104F8000094B2E68201D2B6009F032F92E6000E0DD
:104F9000A1602146BDE87040044809F09CB900BFFB
:104FA0003D310020581300209407002044130020B6
:104FB00013B5034C24680094FFF7D8FF02B010BD6E
:104FC0005813002070B5094B05461B783BB1084CBF
:104FD000084B26680430236009F013F9266029463F
:104FE000BDE87040044809F076B900BF3D310020AB
:104FF00058130020940700204413002070B5094B7B
:1050000005461B783BB1084C084B266804302360EA
:1050100009F000F926602946BDE87040044809F00F
:105020005AB900BF3D3100205813002094070020DA
:105030004413002010B5084B04461B781BB1043004
:1050400000F0A8F801E0C36003612146BDE810400C
:10505000024809F02CB900BF3D3100204413002064
:1050600010B50E4C236813B90D4A136010BDFEF73E
:105070005BFB216891E80C001A44131A8A6842B15C
:1050800092E812002144091A8B4228BF0B4692680D
:10509000F5E71844024B186010BD00BF481300200C
:1050A0004C130020014800F0C9B900BFA40700203C
:1050B000F8B5038805462BB1592B09D0002303808E
:1050C0000320F8BD1E4A136059232B800120F8BD30
:1050D000872920D08229F7D1194F00263C68002C5F
:1050E000F2D0204609F0C8F890B1E0688821224645
:1050F00000F060F950B9E060A3680EB1B36000E061
:105100003B600023A360FFF7ABFFE5E7FFF7CAFFB3
:105110002646A468E3E70A490B680BB90B60D3E79E
:10512000D868904201D19B68F7E70B609968002925
:10513000CAD0C86890420ABF89680B469960F5E7F3
:105140004813002010B50446FFF7ACFFE3680B4A94
:105150004BB113683BB1A34203D1094A1268DA602C
:1051600007E09B68F6E7064B1B68E3601368146072
:10517000A360BDE81040FFF773BF00BF48130020D5
:1051800058130020024B1868003018BF01207047E8
:105190004813002010B50B4A04461368984206D104
:1051A0008368136008E09A68A24203D01346002B7C
:1051B000F9D103E0A2689A60FFF752FF0023A360D1
:1051C000E36010BD4813002038B5836804460D46DF
:1051D0009BB10A4804600220A07304F10C009847B8
:1051E0000238012801D9832D05D120462146BDE88A
:1051F000384000F005B80123A37338BD58130020D0
:105200002DE9F8431C4A0446156889462B4690460A
:105210001A4E3768A34204D00BB11B68FAE7BDE809
:10522000F88334B3A37BABB10023A37345B1AC4285
:1052300004D028468721224608F0FDFF2D68F5E7B7
:10524000A3683BB14C4505D0346004F10C008321C8
:105250002A469847D8F800309C4203D12268064B72
:1052600005E0134623B11A68A242FAD122681A60F7
:105270003760BDE8F88300BF60130020581300209A
:1052800010B5094B00221A70084B1C685CB1E37B17
:105290003BB101230022A373E27320468221FFF772
:1052A00093FF2468F2E710BD403100206013002016
:1052B000024B1878421C1A70704700BF433100201F
:1052C000064B8A221A70064A00231370054A13708F
:1052D000054A1360054A1360704700BF4331002040
:1052E0003E3100203F310020601300205813002081
:1052F0002DE9F041214E33780BB1FFF7C1FF204D6E
:105300002C78002C34D0DFF88CE00C229EF8003092
:105310001C495A4388181C4F895CDFF87C8042681E
:10532000DFF878C08068013303F01F03013C397057
:10533000C8F80020CCF800008EF800302C7088B936
:10534000124C134B1B68236023688BB133780BB16D
:10535000FFF796FF20683978D8F8002008F06BFF37
:105360002368EFE7812904BF0123837308F063FFFB
:10537000337828781844BDE8F08100BF4031002020
:105380003F310020641300204231002054130020DC
:10539000601300203E3100205C13002050130020D9
:1053A000024A034B10781B78184470473F310020A5
:1053B00040310020F0B50C4E3478202C11D00B4B2E
:1053C0000B4D1B780B4F234403F01F032B700C2550
:1053D0006B430134FD18A860F9546A6034700020F2
:1053E000F0BD0120F0BD00BF3F3100203E31002064
:1053F000413100206413002038B5034C256808F0C3
:105400001AFF256038BD00BF5813002010B50A46AA
:1054100009490C68234683420DD00BB11B68FAE79B
:1054200048B1046008600121817383818121BDE856
:105430001040FFF7E1BF10BD6013002038B1837B3F
:10544000013B012B9FBF024A0123C37313707047B6
:105450004031002010B5084C206858B1002323606B
:10546000816843689847236823B1BDE810401868F5
:10547000FEF7A8B910BD00BFE414002010B5044623
:10548000FEF75CF994E80C001344C01A024B9842F2
:105490008CBF0020012010BDFEFFFF7F38B50588BE
:1054A0000446672D09D0792D2ED0002D32D1FFF77B
:1054B000FFFE1B4B18701B4B1D601B4808F09EFF26
:1054C000431C01D167231DE00A28164B07D01A6838
:1054D0007E2AF2DC511C1960144B9854EDE71968D0
:1054E00000254A1C1A60114A0D4B5554284619785C
:1054F000FFF760FF0E4B852118682A46FFF75AFF19
:1055000020B97923238009E0852907D1054B0022A2
:105510001A60D2E700230380032038BD012038BD84
:10552000F1420020F0140020E8140020C5310020D2
:10553000581300200D2810B5014615D00B4C2378C8
:105540002BB90B4808F046FF48B9012306E00A28AA
:1055500005D1074808F03EFF08B100232370054835
:10556000FFF76CFF012010BD002010BD443100206A
:10557000E8140020B407002008B50548054980223A
:1055800008F021FFBDE8084003480021FFF73EBFB7
:10559000E814002045310020B4070020054A1368B4
:1055A00043F004031360044B1B68906943EA002036
:1055B00080B2704700700D4014700D40174A136898
:1055C00023F00C031360164B01221A601A68012A9B
:1055D000FCD1144B08221A60E322C3F8142203F50D
:1055E00005731946104B1B68DB07FBD51020002301
:1055F0000E4A0138126802F0010243EA02034FEA40
:1056000043039BB2F4D1002BF0D0094A180A03F0EF
:10561000FE0310601360EF230B60704700700D40B5
:10562000A8200D4024860840648608409C860840D7
:1056300014700D400C4AB82303FB0022002330B540
:1056400053821A46094CE1188D782DB11C5D8442B5
:1056500002BF00248C70013240F24C5171338B42F6
:10566000F0D1104630BD00BF10150020463200209A
:1056700007B50B4803F0F6FB0A4B01221A70002213
:105680005A706A4608490868496803C26A4603CAEC
:10569000C3F80200C3F8061003B05DF804FB00BFB6
:1056A000F1582000F2420020D602210010B51378F4
:1056B0000446087A83F0020398421DD1487A537851
:1056C000984219D1887A9378984215D1C87AD378BC
:1056D000984211D1087B137998420DD1487B5379B8
:1056E000984209D1887B9379984205D1C87BD379B8
:1056F000984201D103201BE00B890F4A6BB94B89FB
:10570000B3F57F4F09D18B89FE2B06D11368C98968
:10571000022023F8021B13600AE0136851F8080FF7
:10572000083343F8080C486843F8040C1360012060
:10573000A040C0B210BD00BFFC14002010B50F4C3B
:105740000220A17905F04EFDA379112B01D0062B83
:1057500005D1238D618D9942A8BF194608E03A2BE7
:1057600005BF94F8281094F82930002143EA01215C
:105770000120BDE8104005F035BD00BFE039002034
:1057800010B5084C01462378012B08D1A01C082233
:1057900007F0B0F900280CBF2046002010BD002003
:1057A00010BD00BFF242002008B50146102005F0F0
:1057B00027FD044B04489B6800219847BDE808403A
:1057C000FEF77EB920F82000CD57200010B508461E
:1057D0000C46114602F0CEFA044B1B6813B19B68CD
:1057E00020469847024B1C6010BD00BF0C150020DE
:1057F00008150020F8B505460023114A712404FB62
:105800000324A278B2B9617005F016FC26460D4F4C
:105810000D4A3B7806F8035BC01A1568A0701D445A
:1058200005F00AFC3A782946821A304607F094F9C6
:10583000A078F8BD01330C2BDFD14FF0FF30F8BD5D
:105840004632002092370020001500202DE9F84351
:105850004FEA1219B9F10F0F80461D4602F00F04EE
:105860000BD00F2C05D1B9F1000F0AD11024274617
:1058700019E0B9F1000F09D004E00F2C4FF0100926
:1058800000D1102440464A4607F066F909EB0402AD
:105890000F2A274606DC08EB09000021C2F110029E
:1058A00007F034FABCB1114DC7F110002E68404426
:1058B0003146224607F050F9022C08D1B9F10A0FFF
:1058C0009FBFFF2388F80B30FE2388F80C30344448
:1058D0002C60BDE8F883B9F1000F05D04046294699
:1058E000BDE8F84308F0F1BDBDE8F883FC140020E2
:1058F0002DE9F04F8E4E8F4D002387B033702B7003
:10590000044605F015FC05F0A9FB8B4A8B4B126889
:1059100018608DE8600099460AB1FFF70FFF04A8F0
:105920000CB9874900E0214609F0D4FB854B864E2F
:105930001A8803933E2A40F20182D9F800B0834DC1
:105940000BF102032B60009B06F1180093F8008016
:10595000002308F102080BF80830FFF711FF20B907
:1059600006F10800FFF70CFF20B10BF103032B60D9
:10597000802400E0044672783178130943EA011369
:10598000DBB2980840EA8313DBB212F00F0FDEB2ED
:105990006E4F01F00F010CD16B48408848B911B926
:1059A00012F0F00F1FD03B6803F8016B3B607026CC
:1059B0001AE079B912F0F00F0CD1296823F03F03F7
:1059C0001A43634B0A701B88033121F8023C682696
:1059D000296009E05C4A2B681068186003F8046BC2
:1059E0002B60602600E07826574B9A790293112AA3
:1059F00008BF46F0040673075EBF3B6803F8012B3F
:105A00003B60029BDB79402B06D0FF2B07D0012B9C
:105A100008D146F0010609E046F0020606E046F02D
:105A2000030603E03A6802F8013B3A60029A464BEB
:105A3000128982B95A8972B99A8962B9DA8952B9D6
:105A40001A8A42B95A8A32B99A8A22B9DB8A13B9B8
:105A500044F0400013E03F48FFF792FE3E4B1860D1
:105A600078B142781BF80830042043EA02130BF89F
:105A700008303849394AFFF719FE60F03F00C4B2D8
:105A800027E0029B30491A8948F2FE039A420CD162
:105A90004B8B53B98B8B43B9CB8B33B90420083173
:105AA0002E4AFFF703FE2043E9E73A68DFF8A4C077
:105AB00096460CF1100A634603CB5345CEF800001E
:105AC000CEF804109C460EF1080EF4D11F4B103294
:105AD0001A60DFF874A09AF81830FF2B40F08A8023
